S00B00004932432E737265635B
S11300000C9434000C9446000C9446000C94460066
S11300100C9446000C9446000C9446000C94460044
S11300200C9446000C9446000C9446000C94460034
S11300300C9446000C9446000C9446000C94460024
S11300400C9446000C9446000C9446000C94460014
S11300500C9446000C9446000C9446000C94460004
S11300600C9446000C94460011241FBECFEFD8E038
S1130070DEBFCDBF21E0A0E0B1E001C01D92AC31F4
S1130080B207E1F70E94E0010C9428020C940000EE
S11300901092B90080E28093B800089594EA909396
S11300A0BC00ECEBF0E090819923ECF79091B9005F
S11300B0987F903199F48093BB0084E88093BC00CE
S11300C0ECEBF0E080818823ECF78091B900887F25
S11300D0803431F0803231F083E0089580E0089577
S11300E081E0089582E0089584E98093BC00ECEBFC
S11300F0F0E0808184FDFDCF0895BF92CF92DF921E
S1130100EF92FF920F931F93CF93DF93B82ECCEB14
S1130110D0E00F2EF4EADF2EF02D09EB10E00F2EC5
S1130120FBEBEF2EF12CF02D0F2EF4E8CF2EF02D5B
S1130130D88288818823ECF7F8018081887F883011
S1130140B9F7F701B082C88288818823ECF7F801F7
S11301508081887F883119F00E947400E9CFDF9193
S1130160CF911F910F91FF90EF90DF90CF90BF90B0
S113017008958093BB0084E88093BC00ECEBF0E02E
S113018080818823ECF78091B900887F883221F040
S1130190803321F082E0089580E0089581E008959D
S11301A084EC8093BC00ECEBF0E080818823ECF7D6
S11301B08091BB00089584E88093BC00ECEBF0E0F0
S11301C080818823ECF78091BB0008952FEF82E5AE
S11301D097E0215080409040E1F700C0000080ED9E
S11301E00E947D0089E10E94B90087E00E94B90065
S11301F00E94740080ED0E947D008BE60E94B9008D
S113020081E00E94B9000E94740080ED0E947D008C
S11302108AE10E94B90080E00E94B9000E94740043
S113022080ED0E947D008BE10E94B90088E10E946C
S1130230B9000E94740080ED0E947D0088E30E9452
S1130240B90081E00E94B9000E947400089580ED15
S11302500E947D008BE30E94B90081ED0E944E0054
S11302600895CF930E9427010E94D000C82F0E94B6
S1130270D0006C2F70E0762F6627682B072E000CB9
S1130280880B990B0E94ED01609314017093150182
S113029080931601909317010E94D000C82F0E94EA
S11302A0D0006C2F70E0762F6627682B072E000C89
S11302B0880B990B0E94ED0160930C0170930D0162
S11302C080930E0190930F010E94D000C82F0E94CA
S11302D0D0006C2F70E0762F6627682B072E000C59
S11302E0880B990B0E94ED0160930001709301014A
S11302F080930201909303010E94D000C82F0E94B2
S1130300D0006C2F70E0762F6627682B072E000C28
S1130310880B990B0E94ED01609308017093090109
S113032080930A0190930B010E94D000C82F0E9471
S1130330D0006C2F70E0762F6627682B072E000CF8
S1130340880B990B0E94ED016093040170930501E1
S113035080930601909307010E94D000C82F0E9449
S1130360D0006C2F70E0762F6627682B072E000CC8
S1130370880B990B0E94ED01609318017093190189
S113038080931A0190931B010E94D000C82F0E94F1
S1130390DB006C2F70E0762F6627682B072E000C8D
S11303A0880B990B0E94ED01609310017093110169
S11303B080931201909313010E947400CF910895C9
S11303C0509A519A0E9448000E94E6000E9431010E
S11303D0589A599AFBCFE89409C097FB3EF490953C
S11303E08095709561957F4F8F4F9F4F9923A9F00A
S11303F0F92F96E9BB279395F69587957795679599
S1130400B795F111F8CFFAF4BB0F11F460FF1BC0DC
S11304106F5F7F4F8F4F9F4F16C0882311F096E96F
S113042011C0772321F09EE8872F762F05C066231D
S113043071F096E8862F70E060E02AF09A95660FD6
S1130440771F881FDAF7880F9695879597F908958F
S1070450F894FFCF4A
S9030000FC
